{
  "_format": "hh-sol-artifact-1",
  "contractName": "MyNFTMarketplace",
  "sourceName": "contracts/NFTMarketplaceUpdated.sol",
  "abi": [
    {
      "inputs": [],
      "stateMutability": "nonpayable",
      "type": "constructor"
    },
    {
      "anonymous": false,
      "inputs": [
        {
          "indexed": true,
          "internalType": "address",
          "name": "owner",
          "type": "address"
        },
        {
          "indexed": true,
          "internalType": "address",
          "name": "approved",
          "type": "address"
        },
        {
          "indexed": true,
          "internalType": "uint256",
          "name": "tokenId",
          "type": "uint256"
        }
      ],
      "name": "Approval",
      "type": "event"
    },
    {
      "anonymous": false,
      "inputs": [
        {
          "indexed": true,
          "internalType": "address",
          "name": "owner",
          "type": "address"
        },
        {
          "indexed": true,
          "internalType": "address",
          "name": "operator",
          "type": "address"
        },
        {
          "indexed": false,
          "internalType": "bool",
          "name": "approved",
          "type": "bool"
        }
      ],
      "name": "ApprovalForAll",
      "type": "event"
    },
    {
      "anonymous": false,
      "inputs": [
        {
          "indexed": false,
          "internalType": "uint256",
          "name": "tokenId",
          "type": "uint256"
        },
        {
          "indexed": false,
          "internalType": "uint256",
          "name": "price",
          "type": "uint256"
        },
        {
          "indexed": false,
          "internalType": "address",
          "name": "seller",
          "type": "address"
        }
      ],
      "name": "NFTListed",
      "type": "event"
    },
    {
      "anonymous": false,
      "inputs": [
        {
          "indexed": false,
          "internalType": "uint256",
          "name": "tokenId",
          "type": "uint256"
        },
        {
          "indexed": false,
          "internalType": "uint256",
          "name": "price",
          "type": "uint256"
        },
        {
          "indexed": false,
          "internalType": "address",
          "name": "seller",
          "type": "address"
        },
        {
          "indexed": false,
          "internalType": "address",
          "name": "buyer",
          "type": "address"
        }
      ],
      "name": "NFTSold",
      "type": "event"
    },
    {
      "anonymous": false,
      "inputs": [
        {
          "indexed": true,
          "internalType": "address",
          "name": "previousOwner",
          "type": "address"
        },
        {
          "indexed": true,
          "internalType": "address",
          "name": "newOwner",
          "type": "address"
        }
      ],
      "name": "OwnershipTransferred",
      "type": "event"
    },
    {
      "anonymous": false,
      "inputs": [
        {
          "indexed": true,
          "internalType": "address",
          "name": "from",
          "type": "address"
        },
        {
          "indexed": true,
          "internalType": "address",
          "name": "to",
          "type": "address"
        },
        {
          "indexed": true,
          "internalType": "uint256",
          "name": "tokenId",
          "type": "uint256"
        }
      ],
      "name": "Transfer",
      "type": "event"
    },
    {
      "inputs": [
        {
          "internalType": "address",
          "name": "to",
          "type": "address"
        },
        {
          "internalType": "uint256",
          "name": "tokenId",
          "type": "uint256"
        }
      ],
      "name": "approve",
      "outputs": [],
      "stateMutability": "nonpayable",
      "type": "function"
    },
    {
      "inputs": [
        {
          "internalType": "address",
          "name": "owner",
          "type": "address"
        }
      ],
      "name": "balanceOf",
      "outputs": [
        {
          "internalType": "uint256",
          "name": "",
          "type": "uint256"
        }
      ],
      "stateMutability": "view",
      "type": "function"
    },
    {
      "inputs": [
        {
          "internalType": "uint256",
          "name": "tokenId",
          "type": "uint256"
        }
      ],
      "name": "buyNFT",
      "outputs": [],
      "stateMutability": "payable",
      "type": "function"
    },
    {
      "inputs": [
        {
          "internalType": "uint256",
          "name": "tokenId",
          "type": "uint256"
        }
      ],
      "name": "getApproved",
      "outputs": [
        {
          "internalType": "address",
          "name": "",
          "type": "address"
        }
      ],
      "stateMutability": "view",
      "type": "function"
    },
    {
      "inputs": [],
      "name": "getListedNFTs",
      "outputs": [
        {
          "internalType": "uint256[]",
          "name": "",
          "type": "uint256[]"
        }
      ],
      "stateMutability": "view",
      "type": "function"
    },
    {
      "inputs": [
        {
          "internalType": "address",
          "name": "owner",
          "type": "address"
        },
        {
          "internalType": "address",
          "name": "operator",
          "type": "address"
        }
      ],
      "name": "isApprovedForAll",
      "outputs": [
        {
          "internalType": "bool",
          "name": "",
          "type": "bool"
        }
      ],
      "stateMutability": "view",
      "type": "function"
    },
    {
      "inputs": [
        {
          "internalType": "uint256",
          "name": "tokenId",
          "type": "uint256"
        },
        {
          "internalType": "uint256",
          "name": "price",
          "type": "uint256"
        }
      ],
      "name": "listNFT",
      "outputs": [],
      "stateMutability": "nonpayable",
      "type": "function"
    },
    {
      "inputs": [
        {
          "internalType": "string",
          "name": "_tokenURI",
          "type": "string"
        }
      ],
      "name": "mint",
      "outputs": [
        {
          "internalType": "uint256",
          "name": "",
          "type": "uint256"
        }
      ],
      "stateMutability": "nonpayable",
      "type": "function"
    },
    {
      "inputs": [],
      "name": "name",
      "outputs": [
        {
          "internalType": "string",
          "name": "",
          "type": "string"
        }
      ],
      "stateMutability": "view",
      "type": "function"
    },
    {
      "inputs": [],
      "name": "owner",
      "outputs": [
        {
          "internalType": "address",
          "name": "",
          "type": "address"
        }
      ],
      "stateMutability": "view",
      "type": "function"
    },
    {
      "inputs": [
        {
          "internalType": "uint256",
          "name": "tokenId",
          "type": "uint256"
        }
      ],
      "name": "ownerOf",
      "outputs": [
        {
          "internalType": "address",
          "name": "",
          "type": "address"
        }
      ],
      "stateMutability": "view",
      "type": "function"
    },
    {
      "inputs": [],
      "name": "renounceOwnership",
      "outputs": [],
      "stateMutability": "nonpayable",
      "type": "function"
    },
    {
      "inputs": [
        {
          "internalType": "address",
          "name": "from",
          "type": "address"
        },
        {
          "internalType": "address",
          "name": "to",
          "type": "address"
        },
        {
          "internalType": "uint256",
          "name": "tokenId",
          "type": "uint256"
        }
      ],
      "name": "safeTransferFrom",
      "outputs": [],
      "stateMutability": "nonpayable",
      "type": "function"
    },
    {
      "inputs": [
        {
          "internalType": "address",
          "name": "from",
          "type": "address"
        },
        {
          "internalType": "address",
          "name": "to",
          "type": "address"
        },
        {
          "internalType": "uint256",
          "name": "tokenId",
          "type": "uint256"
        },
        {
          "internalType": "bytes",
          "name": "data",
          "type": "bytes"
        }
      ],
      "name": "safeTransferFrom",
      "outputs": [],
      "stateMutability": "nonpayable",
      "type": "function"
    },
    {
      "inputs": [
        {
          "internalType": "address",
          "name": "operator",
          "type": "address"
        },
        {
          "internalType": "bool",
          "name": "approved",
          "type": "bool"
        }
      ],
      "name": "setApprovalForAll",
      "outputs": [],
      "stateMutability": "nonpayable",
      "type": "function"
    },
    {
      "inputs": [
        {
          "internalType": "bytes4",
          "name": "interfaceId",
          "type": "bytes4"
        }
      ],
      "name": "supportsInterface",
      "outputs": [
        {
          "internalType": "bool",
          "name": "",
          "type": "bool"
        }
      ],
      "stateMutability": "view",
      "type": "function"
    },
    {
      "inputs": [],
      "name": "symbol",
      "outputs": [
        {
          "internalType": "string",
          "name": "",
          "type": "string"
        }
      ],
      "stateMutability": "view",
      "type": "function"
    },
    {
      "inputs": [
        {
          "internalType": "uint256",
          "name": "tokenId",
          "type": "uint256"
        }
      ],
      "name": "tokenURI",
      "outputs": [
        {
          "internalType": "string",
          "name": "",
          "type": "string"
        }
      ],
      "stateMutability": "view",
      "type": "function"
    },
    {
      "inputs": [
        {
          "internalType": "address",
          "name": "from",
          "type": "address"
        },
        {
          "internalType": "address",
          "name": "to",
          "type": "address"
        },
        {
          "internalType": "uint256",
          "name": "tokenId",
          "type": "uint256"
        }
      ],
      "name": "transferFrom",
      "outputs": [],
      "stateMutability": "nonpayable",
      "type": "function"
    },
    {
      "inputs": [
        {
          "internalType": "address",
          "name": "newOwner",
          "type": "address"
        }
      ],
      "name": "transferOwnership",
      "outputs": [],
      "stateMutability": "nonpayable",
      "type": "function"
    }
  ],
  "bytecode": "0x608060405234801561001057600080fd5b506040518060400160405280600581526020017f4d794e46540000000000000000000000000000000000000000000000000000008152506040518060400160405280600481526020017f4d4e465400000000000000000000000000000000000000000000000000000000815250816000908161008c91906103de565b50806001908161009c91906103de565b5050506100bb6100b06100c060201b60201c565b6100c860201b60201c565b6104b0565b600033905090565b6000600660009054906101000a900473ffffffffffffffffffffffffffffffffffffffff16905081600660006101000a81548173ffffffffffffffffffffffffffffffffffffffff021916908373ffffffffffffffffffffffffffffffffffffffff1602179055508173ffffffffffffffffffffffffffffffffffffffff168173ffffffffffffffffffffffffffffffffffffffff167f8be0079c531659141344cd1fd0a4f28419497f9722a3daafe3b4186f6b6457e060405160405180910390a35050565b600081519050919050565b7f4e487b7100000000000000000000000000000000000000000000000000000000600052604160045260246000fd5b7f4e487b7100000000000000000000000000000000000000000000000000000000600052602260045260246000fd5b6000600282049050600182168061020f57607f821691505b602082108103610222576102216101c8565b5b50919050565b60008190508160005260206000209050919050565b60006020601f8301049050919050565b600082821b905092915050565b60006008830261028a7fffffffffffffffffffffffffffffffffffffffffffffffffffffffffffffffff8261024d565b610294868361024d565b95508019841693508086168417925050509392505050565b6000819050919050565b6000819050919050565b60006102db6102d66102d1846102ac565b6102b6565b6102ac565b9050919050565b6000819050919050565b6102f5836102c0565b610309610301826102e2565b84845461025a565b825550505050565b600090565b61031e610311565b6103298184846102ec565b505050565b5b8181101561034d57610342600082610316565b60018101905061032f565b5050565b601f8211156103925761036381610228565b61036c8461023d565b8101602085101561037b578190505b61038f6103878561023d565b83018261032e565b50505b505050565b600082821c905092915050565b60006103b560001984600802610397565b1980831691505092915050565b60006103ce83836103a4565b9150826002028217905092915050565b6103e78261018e565b67ffffffffffffffff811115610400576103ff610199565b5b61040a82546101f7565b610415828285610351565b600060209050601f8311600181146104485760008415610436578287015190505b61044085826103c2565b8655506104a8565b601f19841661045686610228565b60005b8281101561047e57848901518255600182019150602085019450602081019050610459565b8683101561049b5784890151610497601f8916826103a4565b8355505b6001600288020188555050505b505050505050565b61369b806104bf6000396000f3fe60806040526004361061011f5760003560e01c8063715018a6116100a0578063b88d4fde11610064578063b88d4fde146103c4578063c87b56dd146103ed578063d85d3d271461042a578063e985e9c514610467578063f2fde38b146104a45761011f565b8063715018a6146103055780638da5cb5b1461031c57806394383f141461034757806395d89b4114610370578063a22cb4651461039b5761011f565b806323b872dd116100e757806323b872dd1461021d57806342842e0e1461024657806351ed82881461026f5780636352211e1461028b57806370a08231146102c85761011f565b8063012386f01461012457806301ffc9a71461014f57806306fdde031461018c578063081812fc146101b7578063095ea7b3146101f4575b600080fd5b34801561013057600080fd5b506101396104cd565b6040516101469190612066565b60405180910390f35b34801561015b57600080fd5b50610176600480360381019061017191906120f4565b6105f9565b604051610183919061213c565b60405180910390f35b34801561019857600080fd5b506101a16106db565b6040516101ae91906121e7565b60405180910390f35b3480156101c357600080fd5b506101de60048036038101906101d99190612235565b61076d565b6040516101eb91906122a3565b60405180910390f35b34801561020057600080fd5b5061021b600480360381019061021691906122ea565b6107b3565b005b34801561022957600080fd5b50610244600480360381019061023f919061232a565b6108ca565b005b34801561025257600080fd5b5061026d6004803603810190610268919061232a565b61092a565b005b61028960048036038101906102849190612235565b61094a565b005b34801561029757600080fd5b506102b260048036038101906102ad9190612235565b610ba1565b6040516102bf91906122a3565b60405180910390f35b3480156102d457600080fd5b506102ef60048036038101906102ea919061237d565b610c27565b6040516102fc91906123b9565b60405180910390f35b34801561031157600080fd5b5061031a610cde565b005b34801561032857600080fd5b50610331610cf2565b60405161033e91906122a3565b60405180910390f35b34801561035357600080fd5b5061036e600480360381019061036991906123d4565b610d1c565b005b34801561037c57600080fd5b50610385610eee565b60405161039291906121e7565b60405180910390f35b3480156103a757600080fd5b506103c260048036038101906103bd9190612440565b610f80565b005b3480156103d057600080fd5b506103eb60048036038101906103e691906125b5565b610f96565b005b3480156103f957600080fd5b50610414600480360381019061040f9190612235565b610ff8565b60405161042191906121e7565b60405180910390f35b34801561043657600080fd5b50610451600480360381019061044c91906126d9565b6110e5565b60405161045e91906123b9565b60405180910390f35b34801561047357600080fd5b5061048e60048036038101906104899190612722565b61111c565b60405161049b919061213c565b60405180910390f35b3480156104b057600080fd5b506104cb60048036038101906104c6919061237d565b6111b0565b005b6060600080600190505b6104e16007611233565b81116105285760006009600083815260200190815260200160002060000154111561051557818061051190612791565b9250505b808061052090612791565b9150506104d7565b5060008167ffffffffffffffff8111156105455761054461248a565b5b6040519080825280602002602001820160405280156105735781602001602082028036833780820191505090505b509050600080600190505b6105886007611233565b81116105ef576000600960008381526020019081526020016000206000015411156105dc57808383815181106105c1576105c06127d9565b5b60200260200101818152505081806105d890612791565b9250505b80806105e790612791565b91505061057e565b5081935050505090565b60007f80ac58cd000000000000000000000000000000000000000000000000000000007bffffffffffffffffffffffffffffffffffffffffffffffffffffffff1916827bffffffffffffffffffffffffffffffffffffffffffffffffffffffff191614806106c457507f5b5e139f000000000000000000000000000000000000000000000000000000007bffffffffffffffffffffffffffffffffffffffffffffffffffffffff1916827bffffffffffffffffffffffffffffffffffffffffffffffffffffffff1916145b806106d457506106d382611241565b5b9050919050565b6060600080546106ea90612837565b80601f016020809104026020016040519081016040528092919081815260200182805461071690612837565b80156107635780601f1061073857610100808354040283529160200191610763565b820191906000526020600020905b81548152906001019060200180831161074657829003601f168201915b5050505050905090565b6000610778826112ab565b6004600083815260200190815260200160002060009054906101000a900473ffffffffffffffffffffffffffffffffffffffff169050919050565b60006107be82610ba1565b90508073ffffffffffffffffffffffffffffffffffffffff168373ffffffffffffffffffffffffffffffffffffffff160361082e576040517f08c379a0000000000000000000000000000000000000000000000000000000008152600401610825906128da565b60405180910390fd5b8073ffffffffffffffffffffffffffffffffffffffff1661084d6112f6565b73ffffffffffffffffffffffffffffffffffffffff16148061087c575061087b816108766112f6565b61111c565b5b6108bb576040517f08c379a00000000000000000000000000000000000000000000000000000000081526004016108b29061296c565b60405180910390fd5b6108c583836112fe565b505050565b6108db6108d56112f6565b826113b7565b61091a576040517f08c379a0000000000000000000000000000000000000000000000000000000008152600401610911906129fe565b60405180910390fd5b61092583838361144c565b505050565b61094583838360405180602001604052806000815250610f96565b505050565b600060096000838152602001908152602001600020604051806040016040529081600082015481526020016001820160009054906101000a900473ffffffffffffffffffffffffffffffffffffffff1673ffffffffffffffffffffffffffffffffffffffff1673ffffffffffffffffffffffffffffffffffffffff168152505090506000816000015111610a13576040517f08c379a0000000000000000000000000000000000000000000000000000000008152600401610a0a90612a6a565b60405180910390fd5b8060000151341015610a5a576040517f08c379a0000000000000000000000000000000000000000000000000000000008152600401610a5190612ad6565b60405180910390fd5b600081602001519050600082600001519050600960008581526020019081526020016000206000808201600090556001820160006101000a81549073ffffffffffffffffffffffffffffffffffffffff02191690555050610abc82338661144c565b8173ffffffffffffffffffffffffffffffffffffffff166108fc829081150290604051600060405180830381858888f19350505050158015610b02573d6000803e3d6000fd5b507f2820044bbebd591ee7d08b7d81dd01945a1a32706da693a946e532d6d988425884828433604051610b389493929190612af6565b60405180910390a180341115610b9b573373ffffffffffffffffffffffffffffffffffffffff166108fc8234610b6e9190612b3b565b9081150290604051600060405180830381858888f19350505050158015610b99573d6000803e3d6000fd5b505b50505050565b600080610bad83611745565b9050600073ffffffffffffffffffffffffffffffffffffffff168173ffffffffffffffffffffffffffffffffffffffff1603610c1e576040517f08c379a0000000000000000000000000000000000000000000000000000000008152600401610c1590612bbb565b60405180910390fd5b80915050919050565b60008073ffffffffffffffffffffffffffffffffffffffff168273ffffffffffffffffffffffffffffffffffffffff1603610c97576040517f08c379a0000000000000000000000000000000000000000000000000000000008152600401610c8e90612c4d565b60405180910390fd5b600360008373ffffffffffffffffffffffffffffffffffffffff1673ffffffffffffffffffffffffffffffffffffffff168152602001908152602001600020549050919050565b610ce6611782565b610cf06000611800565b565b6000600660009054906101000a900473ffffffffffffffffffffffffffffffffffffffff16905090565b610d25826118c6565b610d64576040517f08c379a0000000000000000000000000000000000000000000000000000000008152600401610d5b90612cb9565b60405180910390fd5b3373ffffffffffffffffffffffffffffffffffffffff16610d8483610ba1565b73ffffffffffffffffffffffffffffffffffffffff1614610dda576040517f08c379a0000000000000000000000000000000000000000000000000000000008152600401610dd190612d25565b60405180910390fd5b60008111610e1d576040517f08c379a0000000000000000000000000000000000000000000000000000000008152600401610e1490612d91565b60405180910390fd5b60405180604001604052808281526020013373ffffffffffffffffffffffffffffffffffffffff16815250600960008481526020019081526020016000206000820151816000015560208201518160010160006101000a81548173ffffffffffffffffffffffffffffffffffffffff021916908373ffffffffffffffffffffffffffffffffffffffff1602179055509050507fd2ab19646d6f9fdd37206f962b4ebaab8a4a23ad87f7695e7e1736803cb8bf74828233604051610ee293929190612db1565b60405180910390a15050565b606060018054610efd90612837565b80601f0160208091040260200160405190810160405280929190818152602001828054610f2990612837565b8015610f765780601f10610f4b57610100808354040283529160200191610f76565b820191906000526020600020905b815481529060010190602001808311610f5957829003601f168201915b5050505050905090565b610f92610f8b6112f6565b8383611907565b5050565b610fa7610fa16112f6565b836113b7565b610fe6576040517f08c379a0000000000000000000000000000000000000000000000000000000008152600401610fdd906129fe565b60405180910390fd5b610ff284848484611a73565b50505050565b6060611003826118c6565b611042576040517f08c379a000000000000000000000000000000000000000000000000000000000815260040161103990612e5a565b60405180910390fd5b60086000838152602001908152602001600020805461106090612837565b80601f016020809104026020016040519081016040528092919081815260200182805461108c90612837565b80156110d95780601f106110ae576101008083540402835291602001916110d9565b820191906000526020600020905b8154815290600101906020018083116110bc57829003601f168201915b50505050509050919050565b60006110f16007611acf565b60006110fd6007611233565b90506111093382611ae5565b6111138184611b03565b80915050919050565b6000600560008473ffffffffffffffffffffffffffffffffffffffff1673ffffffffffffffffffffffffffffffffffffffff16815260200190815260200160002060008373ffffffffffffffffffffffffffffffffffffffff1673ffffffffffffffffffffffffffffffffffffffff16815260200190815260200160002060009054906101000a900460ff16905092915050565b6111b8611782565b600073ffffffffffffffffffffffffffffffffffffffff168173ffffffffffffffffffffffffffffffffffffffff1603611227576040517f08c379a000000000000000000000000000000000000000000000000000000000815260040161121e90612eec565b60405180910390fd5b61123081611800565b50565b600081600001549050919050565b60007f01ffc9a7000000000000000000000000000000000000000000000000000000007bffffffffffffffffffffffffffffffffffffffffffffffffffffffff1916827bffffffffffffffffffffffffffffffffffffffffffffffffffffffff1916149050919050565b6112b4816118c6565b6112f3576040517f08c379a00000000000000000000000000000000000000000000000000000000081526004016112ea90612bbb565b60405180910390fd5b50565b600033905090565b816004600083815260200190815260200160002060006101000a81548173ffffffffffffffffffffffffffffffffffffffff021916908373ffffffffffffffffffffffffffffffffffffffff160217905550808273ffffffffffffffffffffffffffffffffffffffff1661137183610ba1565b73ffffffffffffffffffffffffffffffffffffffff167f8c5be1e5ebec7d5bd14f71427d1e84f3dd0314c0f7b2291e5b200ac8c7c3b92560405160405180910390a45050565b6000806113c383610ba1565b90508073ffffffffffffffffffffffffffffffffffffffff168473ffffffffffffffffffffffffffffffffffffffff1614806114055750611404818561111c565b5b8061144357508373ffffffffffffffffffffffffffffffffffffffff1661142b8461076d565b73ffffffffffffffffffffffffffffffffffffffff16145b91505092915050565b8273ffffffffffffffffffffffffffffffffffffffff1661146c82610ba1565b73ffffffffffffffffffffffffffffffffffffffff16146114c2576040517f08c379a00000000000000000000000000000000000000000000000000000000081526004016114b990612f7e565b60405180910390fd5b600073ffffffffffffffffffffffffffffffffffffffff168273ffffffffffffffffffffffffffffffffffffffff1603611531576040517f08c379a000000000000000000000000000000000000000000000000000000000815260040161152890613010565b60405180910390fd5b61153e8383836001611b70565b8273ffffffffffffffffffffffffffffffffffffffff1661155e82610ba1565b73ffffffffffffffffffffffffffffffffffffffff16146115b4576040517f08c379a00000000000000000000000000000000000000000000000000000000081526004016115ab90612f7e565b60405180910390fd5b6004600082815260200190815260200160002060006101000a81549073ffffffffffffffffffffffffffffffffffffffff02191690556001600360008573ffffffffffffffffffffffffffffffffffffffff1673ffffffffffffffffffffffffffffffffffffffff168152602001908152602001600020600082825403925050819055506001600360008473ffffffffffffffffffffffffffffffffffffffff1673ffffffffffffffffffffffffffffffffffffffff16815260200190815260200160002060008282540192505081905550816002600083815260200190815260200160002060006101000a81548173ffffffffffffffffffffffffffffffffffffffff021916908373ffffffffffffffffffffffffffffffffffffffff160217905550808273ffffffffffffffffffffffffffffffffffffffff168473ffffffffffffffffffffffffffffffffffffffff167fddf252ad1be2c89b69c2b068fc378daa952ba7f163c4a11628f55a4df523b3ef60405160405180910390a46117408383836001611b76565b505050565b60006002600083815260200190815260200160002060009054906101000a900473ffffffffffffffffffffffffffffffffffffffff169050919050565b61178a6112f6565b73ffffffffffffffffffffffffffffffffffffffff166117a8610cf2565b73ffffffffffffffffffffffffffffffffffffffff16146117fe576040517f08c379a00000000000000000000000000000000000000000000000000000000081526004016117f59061307c565b60405180910390fd5b565b6000600660009054906101000a900473ffffffffffffffffffffffffffffffffffffffff16905081600660006101000a81548173ffffffffffffffffffffffffffffffffffffffff021916908373ffffffffffffffffffffffffffffffffffffffff1602179055508173ffffffffffffffffffffffffffffffffffffffff168173ffffffffffffffffffffffffffffffffffffffff167f8be0079c531659141344cd1fd0a4f28419497f9722a3daafe3b4186f6b6457e060405160405180910390a35050565b60008073ffffffffffffffffffffffffffffffffffffffff166118e883611745565b73ffffffffffffffffffffffffffffffffffffffff1614159050919050565b8173ffffffffffffffffffffffffffffffffffffffff168373ffffffffffffffffffffffffffffffffffffffff1603611975576040517f08c379a000000000000000000000000000000000000000000000000000000000815260040161196c906130e8565b60405180910390fd5b80600560008573ffffffffffffffffffffffffffffffffffffffff1673ffffffffffffffffffffffffffffffffffffffff16815260200190815260200160002060008473ffffffffffffffffffffffffffffffffffffffff1673ffffffffffffffffffffffffffffffffffffffff16815260200190815260200160002060006101000a81548160ff0219169083151502179055508173ffffffffffffffffffffffffffffffffffffffff168373ffffffffffffffffffffffffffffffffffffffff167f17307eab39ab6107e8899845ad3d59bd9653f200f220920489ca2b5937696c3183604051611a66919061213c565b60405180910390a3505050565b611a7e84848461144c565b611a8a84848484611b7c565b611ac9576040517f08c379a0000000000000000000000000000000000000000000000000000000008152600401611ac09061317a565b60405180910390fd5b50505050565b6001816000016000828254019250508190555050565b611aff828260405180602001604052806000815250611d03565b5050565b611b0c826118c6565b611b4b576040517f08c379a0000000000000000000000000000000000000000000000000000000008152600401611b429061320c565b60405180910390fd5b80600860008481526020019081526020016000209081611b6b91906133d8565b505050565b50505050565b50505050565b6000611b9d8473ffffffffffffffffffffffffffffffffffffffff16611d5e565b15611cf6578373ffffffffffffffffffffffffffffffffffffffff1663150b7a02611bc66112f6565b8786866040518563ffffffff1660e01b8152600401611be894939291906134ff565b6020604051808303816000875af1925050508015611c2457506040513d601f19601f82011682018060405250810190611c219190613560565b60015b611ca6573d8060008114611c54576040519150601f19603f3d011682016040523d82523d6000602084013e611c59565b606091505b506000815103611c9e576040517f08c379a0000000000000000000000000000000000000000000000000000000008152600401611c959061317a565b60405180910390fd5b805181602001fd5b63150b7a0260e01b7bffffffffffffffffffffffffffffffffffffffffffffffffffffffff1916817bffffffffffffffffffffffffffffffffffffffffffffffffffffffff191614915050611cfb565b600190505b949350505050565b611d0d8383611d81565b611d1a6000848484611b7c565b611d59576040517f08c379a0000000000000000000000000000000000000000000000000000000008152600401611d509061317a565b60405180910390fd5b505050565b6000808273ffffffffffffffffffffffffffffffffffffffff163b119050919050565b600073ffffffffffffffffffffffffffffffffffffffff168273ffffffffffffffffffffffffffffffffffffffff1603611df0576040517f08c379a0000000000000000000000000000000000000000000000000000000008152600401611de7906135d9565b60405180910390fd5b611df9816118c6565b15611e39576040517f08c379a0000000000000000000000000000000000000000000000000000000008152600401611e3090613645565b60405180910390fd5b611e47600083836001611b70565b611e50816118c6565b15611e90576040517f08c379a0000000000000000000000000000000000000000000000000000000008152600401611e8790613645565b60405180910390fd5b6001600360008473ffffffffffffffffffffffffffffffffffffffff1673ffffffffffffffffffffffffffffffffffffffff16815260200190815260200160002060008282540192505081905550816002600083815260200190815260200160002060006101000a81548173ffffffffffffffffffffffffffffffffffffffff021916908373ffffffffffffffffffffffffffffffffffffffff160217905550808273ffffffffffffffffffffffffffffffffffffffff16600073ffffffffffffffffffffffffffffffffffffffff167fddf252ad1be2c89b69c2b068fc378daa952ba7f163c4a11628f55a4df523b3ef60405160405180910390a4611f9a600083836001611b76565b5050565b600081519050919050565b600082825260208201905092915050565b6000819050602082019050919050565b6000819050919050565b611fdd81611fca565b82525050565b6000611fef8383611fd4565b60208301905092915050565b6000602082019050919050565b600061201382611f9e565b61201d8185611fa9565b935061202883611fba565b8060005b838110156120595781516120408882611fe3565b975061204b83611ffb565b92505060018101905061202c565b5085935050505092915050565b600060208201905081810360008301526120808184612008565b905092915050565b6000604051905090565b600080fd5b600080fd5b60007fffffffff0000000000000000000000000000000000000000000000000000000082169050919050565b6120d18161209c565b81146120dc57600080fd5b50565b6000813590506120ee816120c8565b92915050565b60006020828403121561210a57612109612092565b5b6000612118848285016120df565b91505092915050565b60008115159050919050565b61213681612121565b82525050565b6000602082019050612151600083018461212d565b92915050565b600081519050919050565b600082825260208201905092915050565b60005b83811015612191578082015181840152602081019050612176565b60008484015250505050565b6000601f19601f8301169050919050565b60006121b982612157565b6121c38185612162565b93506121d3818560208601612173565b6121dc8161219d565b840191505092915050565b6000602082019050818103600083015261220181846121ae565b905092915050565b61221281611fca565b811461221d57600080fd5b50565b60008135905061222f81612209565b92915050565b60006020828403121561224b5761224a612092565b5b600061225984828501612220565b91505092915050565b600073ffffffffffffffffffffffffffffffffffffffff82169050919050565b600061228d82612262565b9050919050565b61229d81612282565b82525050565b60006020820190506122b86000830184612294565b92915050565b6122c781612282565b81146122d257600080fd5b50565b6000813590506122e4816122be565b92915050565b6000806040838503121561230157612300612092565b5b600061230f858286016122d5565b925050602061232085828601612220565b9150509250929050565b60008060006060848603121561234357612342612092565b5b6000612351868287016122d5565b9350506020612362868287016122d5565b925050604061237386828701612220565b9150509250925092565b60006020828403121561239357612392612092565b5b60006123a1848285016122d5565b91505092915050565b6123b381611fca565b82525050565b60006020820190506123ce60008301846123aa565b92915050565b600080604083850312156123eb576123ea612092565b5b60006123f985828601612220565b925050602061240a85828601612220565b9150509250929050565b61241d81612121565b811461242857600080fd5b50565b60008135905061243a81612414565b92915050565b6000806040838503121561245757612456612092565b5b6000612465858286016122d5565b92505060206124768582860161242b565b9150509250929050565b600080fd5b600080fd5b7f4e487b7100000000000000000000000000000000000000000000000000000000600052604160045260246000fd5b6124c28261219d565b810181811067ffffffffffffffff821117156124e1576124e061248a565b5b80604052505050565b60006124f4612088565b905061250082826124b9565b919050565b600067ffffffffffffffff8211156125205761251f61248a565b5b6125298261219d565b9050602081019050919050565b82818337600083830152505050565b600061255861255384612505565b6124ea565b90508281526020810184848401111561257457612573612485565b5b61257f848285612536565b509392505050565b600082601f83011261259c5761259b612480565b5b81356125ac848260208601612545565b91505092915050565b600080600080608085870312156125cf576125ce612092565b5b60006125dd878288016122d5565b94505060206125ee878288016122d5565b93505060406125ff87828801612220565b925050606085013567ffffffffffffffff8111156126205761261f612097565b5b61262c87828801612587565b91505092959194509250565b600067ffffffffffffffff8211156126535761265261248a565b5b61265c8261219d565b9050602081019050919050565b600061267c61267784612638565b6124ea565b90508281526020810184848401111561269857612697612485565b5b6126a3848285612536565b509392505050565b600082601f8301126126c0576126bf612480565b5b81356126d0848260208601612669565b91505092915050565b6000602082840312156126ef576126ee612092565b5b600082013567ffffffffffffffff81111561270d5761270c612097565b5b612719848285016126ab565b91505092915050565b6000806040838503121561273957612738612092565b5b6000612747858286016122d5565b9250506020612758858286016122d5565b9150509250929050565b7f4e487b7100000000000000000000000000000000000000000000000000000000600052601160045260246000fd5b600061279c82611fca565b91507fffffffffffffffffffffffffffffffffffffffffffffffffffffffffffffffff82036127ce576127cd612762565b5b600182019050919050565b7f4e487b7100000000000000000000000000000000000000000000000000000000600052603260045260246000fd5b7f4e487b7100000000000000000000000000000000000000000000000000000000600052602260045260246000fd5b6000600282049050600182168061284f57607f821691505b60208210810361286257612861612808565b5b50919050565b7f4552433732313a20617070726f76616c20746f2063757272656e74206f776e6560008201527f7200000000000000000000000000000000000000000000000000000000000000602082015250565b60006128c4602183612162565b91506128cf82612868565b604082019050919050565b600060208201905081810360008301526128f3816128b7565b9050919050565b7f4552433732313a20617070726f76652063616c6c6572206973206e6f7420746f60008201527f6b656e206f776e6572206f7220617070726f76656420666f7220616c6c000000602082015250565b6000612956603d83612162565b9150612961826128fa565b604082019050919050565b6000602082019050818103600083015261298581612949565b9050919050565b7f4552433732313a2063616c6c6572206973206e6f7420746f6b656e206f776e6560008201527f72206f7220617070726f76656400000000000000000000000000000000000000602082015250565b60006129e8602d83612162565b91506129f38261298c565b604082019050919050565b60006020820190508181036000830152612a17816129db565b9050919050565b7f4e4654206e6f7420666f722073616c6500000000000000000000000000000000600082015250565b6000612a54601083612162565b9150612a5f82612a1e565b602082019050919050565b60006020820190508181036000830152612a8381612a47565b9050919050565b7f496e73756666696369656e74207061796d656e74000000000000000000000000600082015250565b6000612ac0601483612162565b9150612acb82612a8a565b602082019050919050565b60006020820190508181036000830152612aef81612ab3565b9050919050565b6000608082019050612b0b60008301876123aa565b612b1860208301866123aa565b612b256040830185612294565b612b326060830184612294565b95945050505050565b6000612b4682611fca565b9150612b5183611fca565b9250828203905081811115612b6957612b68612762565b5b92915050565b7f4552433732313a20696e76616c696420746f6b656e2049440000000000000000600082015250565b6000612ba5601883612162565b9150612bb082612b6f565b602082019050919050565b60006020820190508181036000830152612bd481612b98565b9050919050565b7f4552433732313a2061646472657373207a65726f206973206e6f74206120766160008201527f6c6964206f776e65720000000000000000000000000000000000000000000000602082015250565b6000612c37602983612162565b9150612c4282612bdb565b604082019050919050565b60006020820190508181036000830152612c6681612c2a565b9050919050565b7f4e465420646f6573206e6f742065786973740000000000000000000000000000600082015250565b6000612ca3601283612162565b9150612cae82612c6d565b602082019050919050565b60006020820190508181036000830152612cd281612c96565b9050919050565b7f4e6f7420746865206f776e657200000000000000000000000000000000000000600082015250565b6000612d0f600d83612162565b9150612d1a82612cd9565b602082019050919050565b60006020820190508181036000830152612d3e81612d02565b9050919050565b7f5072696365206d7573742062652067726561746572207468616e207a65726f00600082015250565b6000612d7b601f83612162565b9150612d8682612d45565b602082019050919050565b60006020820190508181036000830152612daa81612d6e565b9050919050565b6000606082019050612dc660008301866123aa565b612dd360208301856123aa565b612de06040830184612294565b949350505050565b7f4552433732314d657461646174613a2055524920717565727920666f72206e6f60008201527f6e6578697374656e7420746f6b656e0000000000000000000000000000000000602082015250565b6000612e44602f83612162565b9150612e4f82612de8565b604082019050919050565b60006020820190508181036000830152612e7381612e37565b9050919050565b7f4f776e61626c653a206e6577206f776e657220697320746865207a65726f206160008201527f6464726573730000000000000000000000000000000000000000000000000000602082015250565b6000612ed6602683612162565b9150612ee182612e7a565b604082019050919050565b60006020820190508181036000830152612f0581612ec9565b9050919050565b7f4552433732313a207472616e736665722066726f6d20696e636f72726563742060008201527f6f776e6572000000000000000000000000000000000000000000000000000000602082015250565b6000612f68602583612162565b9150612f7382612f0c565b604082019050919050565b60006020820190508181036000830152612f9781612f5b565b9050919050565b7f4552433732313a207472616e7366657220746f20746865207a65726f2061646460008201527f7265737300000000000000000000000000000000000000000000000000000000602082015250565b6000612ffa602483612162565b915061300582612f9e565b604082019050919050565b6000602082019050818103600083015261302981612fed565b9050919050565b7f4f776e61626c653a2063616c6c6572206973206e6f7420746865206f776e6572600082015250565b6000613066602083612162565b915061307182613030565b602082019050919050565b6000602082019050818103600083015261309581613059565b9050919050565b7f4552433732313a20617070726f766520746f2063616c6c657200000000000000600082015250565b60006130d2601983612162565b91506130dd8261309c565b602082019050919050565b60006020820190508181036000830152613101816130c5565b9050919050565b7f4552433732313a207472616e7366657220746f206e6f6e20455243373231526560008201527f63656976657220696d706c656d656e7465720000000000000000000000000000602082015250565b6000613164603283612162565b915061316f82613108565b604082019050919050565b6000602082019050818103600083015261319381613157565b9050919050565b7f4552433732314d657461646174613a2055524920736574206f66206e6f6e657860008201527f697374656e7420746f6b656e0000000000000000000000000000000000000000602082015250565b60006131f6602c83612162565b91506132018261319a565b604082019050919050565b60006020820190508181036000830152613225816131e9565b9050919050565b60008190508160005260206000209050919050565b60006020601f8301049050919050565b600082821b905092915050565b60006008830261328e7fffffffffffffffffffffffffffffffffffffffffffffffffffffffffffffffff82613251565b6132988683613251565b95508019841693508086168417925050509392505050565b6000819050919050565b60006132d56132d06132cb84611fca565b6132b0565b611fca565b9050919050565b6000819050919050565b6132ef836132ba565b6133036132fb826132dc565b84845461325e565b825550505050565b600090565b61331861330b565b6133238184846132e6565b505050565b5b818110156133475761333c600082613310565b600181019050613329565b5050565b601f82111561338c5761335d8161322c565b61336684613241565b81016020851015613375578190505b61338961338185613241565b830182613328565b50505b505050565b600082821c905092915050565b60006133af60001984600802613391565b1980831691505092915050565b60006133c8838361339e565b9150826002028217905092915050565b6133e182612157565b67ffffffffffffffff8111156133fa576133f961248a565b5b6134048254612837565b61340f82828561334b565b600060209050601f8311600181146134425760008415613430578287015190505b61343a85826133bc565b8655506134a2565b601f1984166134508661322c565b60005b8281101561347857848901518255600182019150602085019450602081019050613453565b868310156134955784890151613491601f89168261339e565b8355505b6001600288020188555050505b505050505050565b600081519050919050565b600082825260208201905092915050565b60006134d1826134aa565b6134db81856134b5565b93506134eb818560208601612173565b6134f48161219d565b840191505092915050565b60006080820190506135146000830187612294565b6135216020830186612294565b61352e60408301856123aa565b818103606083015261354081846134c6565b905095945050505050565b60008151905061355a816120c8565b92915050565b60006020828403121561357657613575612092565b5b60006135848482850161354b565b91505092915050565b7f4552433732313a206d696e7420746f20746865207a65726f2061646472657373600082015250565b60006135c3602083612162565b91506135ce8261358d565b602082019050919050565b600060208201905081810360008301526135f2816135b6565b9050919050565b7f4552433732313a20746f6b656e20616c7265616479206d696e74656400000000600082015250565b600061362f601c83612162565b915061363a826135f9565b602082019050919050565b6000602082019050818103600083015261365e81613622565b905091905056fea26469706673582212204fa0e2575ab2901e760de3714b0aceab29204e4d5ef0b24f866c3e1f3c5b40d664736f6c634300081b0033",
  "linkReferences": {},
  "deployedLinkReferences": {}
}