{
  "_format": "hh-sol-artifact-1",
  "contractName": "MyNFT",
  "sourceName": "contracts/NFTMarketplace.sol",
  "abi": [
    {
      "inputs": [],
      "stateMutability": "nonpayable",
      "type": "constructor"
    },
    {
      "anonymous": false,
      "inputs": [
        {
          "indexed": true,
          "internalType": "address",
          "name": "owner",
          "type": "address"
        },
        {
          "indexed": true,
          "internalType": "address",
          "name": "approved",
          "type": "address"
        },
        {
          "indexed": true,
          "internalType": "uint256",
          "name": "tokenId",
          "type": "uint256"
        }
      ],
      "name": "Approval",
      "type": "event"
    },
    {
      "anonymous": false,
      "inputs": [
        {
          "indexed": true,
          "internalType": "address",
          "name": "owner",
          "type": "address"
        },
        {
          "indexed": true,
          "internalType": "address",
          "name": "operator",
          "type": "address"
        },
        {
          "indexed": false,
          "internalType": "bool",
          "name": "approved",
          "type": "bool"
        }
      ],
      "name": "ApprovalForAll",
      "type": "event"
    },
    {
      "anonymous": false,
      "inputs": [
        {
          "indexed": true,
          "internalType": "address",
          "name": "previousOwner",
          "type": "address"
        },
        {
          "indexed": true,
          "internalType": "address",
          "name": "newOwner",
          "type": "address"
        }
      ],
      "name": "OwnershipTransferred",
      "type": "event"
    },
    {
      "anonymous": false,
      "inputs": [
        {
          "indexed": true,
          "internalType": "address",
          "name": "from",
          "type": "address"
        },
        {
          "indexed": true,
          "internalType": "address",
          "name": "to",
          "type": "address"
        },
        {
          "indexed": true,
          "internalType": "uint256",
          "name": "tokenId",
          "type": "uint256"
        }
      ],
      "name": "Transfer",
      "type": "event"
    },
    {
      "inputs": [
        {
          "internalType": "address",
          "name": "to",
          "type": "address"
        },
        {
          "internalType": "uint256",
          "name": "tokenId",
          "type": "uint256"
        }
      ],
      "name": "approve",
      "outputs": [],
      "stateMutability": "nonpayable",
      "type": "function"
    },
    {
      "inputs": [
        {
          "internalType": "address",
          "name": "owner",
          "type": "address"
        }
      ],
      "name": "balanceOf",
      "outputs": [
        {
          "internalType": "uint256",
          "name": "",
          "type": "uint256"
        }
      ],
      "stateMutability": "view",
      "type": "function"
    },
    {
      "inputs": [
        {
          "internalType": "uint256",
          "name": "tokenId",
          "type": "uint256"
        }
      ],
      "name": "getApproved",
      "outputs": [
        {
          "internalType": "address",
          "name": "",
          "type": "address"
        }
      ],
      "stateMutability": "view",
      "type": "function"
    },
    {
      "inputs": [
        {
          "internalType": "address",
          "name": "owner",
          "type": "address"
        },
        {
          "internalType": "address",
          "name": "operator",
          "type": "address"
        }
      ],
      "name": "isApprovedForAll",
      "outputs": [
        {
          "internalType": "bool",
          "name": "",
          "type": "bool"
        }
      ],
      "stateMutability": "view",
      "type": "function"
    },
    {
      "inputs": [
        {
          "internalType": "address",
          "name": "recipient",
          "type": "address"
        },
        {
          "internalType": "string",
          "name": "_tokenURI",
          "type": "string"
        }
      ],
      "name": "mint",
      "outputs": [
        {
          "internalType": "uint256",
          "name": "",
          "type": "uint256"
        }
      ],
      "stateMutability": "nonpayable",
      "type": "function"
    },
    {
      "inputs": [],
      "name": "name",
      "outputs": [
        {
          "internalType": "string",
          "name": "",
          "type": "string"
        }
      ],
      "stateMutability": "view",
      "type": "function"
    },
    {
      "inputs": [],
      "name": "owner",
      "outputs": [
        {
          "internalType": "address",
          "name": "",
          "type": "address"
        }
      ],
      "stateMutability": "view",
      "type": "function"
    },
    {
      "inputs": [
        {
          "internalType": "uint256",
          "name": "tokenId",
          "type": "uint256"
        }
      ],
      "name": "ownerOf",
      "outputs": [
        {
          "internalType": "address",
          "name": "",
          "type": "address"
        }
      ],
      "stateMutability": "view",
      "type": "function"
    },
    {
      "inputs": [],
      "name": "renounceOwnership",
      "outputs": [],
      "stateMutability": "nonpayable",
      "type": "function"
    },
    {
      "inputs": [
        {
          "internalType": "address",
          "name": "from",
          "type": "address"
        },
        {
          "internalType": "address",
          "name": "to",
          "type": "address"
        },
        {
          "internalType": "uint256",
          "name": "tokenId",
          "type": "uint256"
        }
      ],
      "name": "safeTransferFrom",
      "outputs": [],
      "stateMutability": "nonpayable",
      "type": "function"
    },
    {
      "inputs": [
        {
          "internalType": "address",
          "name": "from",
          "type": "address"
        },
        {
          "internalType": "address",
          "name": "to",
          "type": "address"
        },
        {
          "internalType": "uint256",
          "name": "tokenId",
          "type": "uint256"
        },
        {
          "internalType": "bytes",
          "name": "data",
          "type": "bytes"
        }
      ],
      "name": "safeTransferFrom",
      "outputs": [],
      "stateMutability": "nonpayable",
      "type": "function"
    },
    {
      "inputs": [
        {
          "internalType": "address",
          "name": "operator",
          "type": "address"
        },
        {
          "internalType": "bool",
          "name": "approved",
          "type": "bool"
        }
      ],
      "name": "setApprovalForAll",
      "outputs": [],
      "stateMutability": "nonpayable",
      "type": "function"
    },
    {
      "inputs": [
        {
          "internalType": "bytes4",
          "name": "interfaceId",
          "type": "bytes4"
        }
      ],
      "name": "supportsInterface",
      "outputs": [
        {
          "internalType": "bool",
          "name": "",
          "type": "bool"
        }
      ],
      "stateMutability": "view",
      "type": "function"
    },
    {
      "inputs": [],
      "name": "symbol",
      "outputs": [
        {
          "internalType": "string",
          "name": "",
          "type": "string"
        }
      ],
      "stateMutability": "view",
      "type": "function"
    },
    {
      "inputs": [
        {
          "internalType": "uint256",
          "name": "tokenId",
          "type": "uint256"
        }
      ],
      "name": "tokenURI",
      "outputs": [
        {
          "internalType": "string",
          "name": "",
          "type": "string"
        }
      ],
      "stateMutability": "view",
      "type": "function"
    },
    {
      "inputs": [
        {
          "internalType": "address",
          "name": "from",
          "type": "address"
        },
        {
          "internalType": "address",
          "name": "to",
          "type": "address"
        },
        {
          "internalType": "uint256",
          "name": "tokenId",
          "type": "uint256"
        }
      ],
      "name": "transferFrom",
      "outputs": [],
      "stateMutability": "nonpayable",
      "type": "function"
    },
    {
      "inputs": [
        {
          "internalType": "address",
          "name": "newOwner",
          "type": "address"
        }
      ],
      "name": "transferOwnership",
      "outputs": [],
      "stateMutability": "nonpayable",
      "type": "function"
    }
  ],
  "bytecode": "0x608060405234801561001057600080fd5b506040518060400160405280600581526020017f4d794e46540000000000000000000000000000000000000000000000000000008152506040518060400160405280600481526020017f4d4e465400000000000000000000000000000000000000000000000000000000815250816000908161008c91906103de565b50806001908161009c91906103de565b5050506100bb6100b06100c060201b60201c565b6100c860201b60201c565b6104b0565b600033905090565b6000600660009054906101000a900473ffffffffffffffffffffffffffffffffffffffff16905081600660006101000a81548173ffffffffffffffffffffffffffffffffffffffff021916908373ffffffffffffffffffffffffffffffffffffffff1602179055508173ffffffffffffffffffffffffffffffffffffffff168173ffffffffffffffffffffffffffffffffffffffff167f8be0079c531659141344cd1fd0a4f28419497f9722a3daafe3b4186f6b6457e060405160405180910390a35050565b600081519050919050565b7f4e487b7100000000000000000000000000000000000000000000000000000000600052604160045260246000fd5b7f4e487b7100000000000000000000000000000000000000000000000000000000600052602260045260246000fd5b6000600282049050600182168061020f57607f821691505b602082108103610222576102216101c8565b5b50919050565b60008190508160005260206000209050919050565b60006020601f8301049050919050565b600082821b905092915050565b60006008830261028a7fffffffffffffffffffffffffffffffffffffffffffffffffffffffffffffffff8261024d565b610294868361024d565b95508019841693508086168417925050509392505050565b6000819050919050565b6000819050919050565b60006102db6102d66102d1846102ac565b6102b6565b6102ac565b9050919050565b6000819050919050565b6102f5836102c0565b610309610301826102e2565b84845461025a565b825550505050565b600090565b61031e610311565b6103298184846102ec565b505050565b5b8181101561034d57610342600082610316565b60018101905061032f565b5050565b601f8211156103925761036381610228565b61036c8461023d565b8101602085101561037b578190505b61038f6103878561023d565b83018261032e565b50505b505050565b600082821c905092915050565b60006103b560001984600802610397565b1980831691505092915050565b60006103ce83836103a4565b9150826002028217905092915050565b6103e78261018e565b67ffffffffffffffff811115610400576103ff610199565b5b61040a82546101f7565b610415828285610351565b600060209050601f8311600181146104485760008415610436578287015190505b61044085826103c2565b8655506104a8565b601f19841661045686610228565b60005b8281101561047e57848901518255600182019150602085019450602081019050610459565b8683101561049b5784890151610497601f8916826103a4565b8355505b6001600288020188555050505b505050505050565b612b6f806104bf6000396000f3fe608060405234801561001057600080fd5b506004361061010b5760003560e01c8063715018a6116100a2578063b88d4fde11610071578063b88d4fde146102a4578063c87b56dd146102c0578063d0def521146102f0578063e985e9c514610320578063f2fde38b146103505761010b565b8063715018a6146102425780638da5cb5b1461024c57806395d89b411461026a578063a22cb465146102885761010b565b806323b872dd116100de57806323b872dd146101aa57806342842e0e146101c65780636352211e146101e257806370a08231146102125761010b565b806301ffc9a71461011057806306fdde0314610140578063081812fc1461015e578063095ea7b31461018e575b600080fd5b61012a6004803603810190610125919061195d565b61036c565b60405161013791906119a5565b60405180910390f35b61014861044e565b6040516101559190611a50565b60405180910390f35b61017860048036038101906101739190611aa8565b6104e0565b6040516101859190611b16565b60405180910390f35b6101a860048036038101906101a39190611b5d565b610526565b005b6101c460048036038101906101bf9190611b9d565b61063d565b005b6101e060048036038101906101db9190611b9d565b61069d565b005b6101fc60048036038101906101f79190611aa8565b6106bd565b6040516102099190611b16565b60405180910390f35b61022c60048036038101906102279190611bf0565b610743565b6040516102399190611c2c565b60405180910390f35b61024a6107fa565b005b61025461080e565b6040516102619190611b16565b60405180910390f35b610272610838565b60405161027f9190611a50565b60405180910390f35b6102a2600480360381019061029d9190611c73565b6108ca565b005b6102be60048036038101906102b99190611de8565b6108e0565b005b6102da60048036038101906102d59190611aa8565b610942565b6040516102e79190611a50565b60405180910390f35b61030a60048036038101906103059190611f0c565b610a2f565b6040516103179190611c2c565b60405180910390f35b61033a60048036038101906103359190611f68565b610a6f565b60405161034791906119a5565b60405180910390f35b61036a60048036038101906103659190611bf0565b610b03565b005b60007f80ac58cd000000000000000000000000000000000000000000000000000000007bffffffffffffffffffffffffffffffffffffffffffffffffffffffff1916827bffffffffffffffffffffffffffffffffffffffffffffffffffffffff1916148061043757507f5b5e139f000000000000000000000000000000000000000000000000000000007bffffffffffffffffffffffffffffffffffffffffffffffffffffffff1916827bffffffffffffffffffffffffffffffffffffffffffffffffffffffff1916145b80610447575061044682610b86565b5b9050919050565b60606000805461045d90611fd7565b80601f016020809104026020016040519081016040528092919081815260200182805461048990611fd7565b80156104d65780601f106104ab576101008083540402835291602001916104d6565b820191906000526020600020905b8154815290600101906020018083116104b957829003601f168201915b5050505050905090565b60006104eb82610bf0565b6004600083815260200190815260200160002060009054906101000a900473ffffffffffffffffffffffffffffffffffffffff169050919050565b6000610531826106bd565b90508073ffffffffffffffffffffffffffffffffffffffff168373ffffffffffffffffffffffffffffffffffffffff16036105a1576040517f08c379a00000000000000000000000000000000000000000000000000000000081526004016105989061207a565b60405180910390fd5b8073ffffffffffffffffffffffffffffffffffffffff166105c0610c3b565b73ffffffffffffffffffffffffffffffffffffffff1614806105ef57506105ee816105e9610c3b565b610a6f565b5b61062e576040517f08c379a00000000000000000000000000000000000000000000000000000000081526004016106259061210c565b60405180910390fd5b6106388383610c43565b505050565b61064e610648610c3b565b82610cfc565b61068d576040517f08c379a00000000000000000000000000000000000000000000000000000000081526004016106849061219e565b60405180910390fd5b610698838383610d91565b505050565b6106b8838383604051806020016040528060008152506108e0565b505050565b6000806106c98361108a565b9050600073ffffffffffffffffffffffffffffffffffffffff168173ffffffffffffffffffffffffffffffffffffffff160361073a576040517f08c379a00000000000000000000000000000000000000000000000000000000081526004016107319061220a565b60405180910390fd5b80915050919050565b60008073ffffffffffffffffffffffffffffffffffffffff168273ffffffffffffffffffffffffffffffffffffffff16036107b3576040517f08c379a00000000000000000000000000000000000000000000000000000000081526004016107aa9061229c565b60405180910390fd5b600360008373ffffffffffffffffffffffffffffffffffffffff1673ffffffffffffffffffffffffffffffffffffffff168152602001908152602001600020549050919050565b6108026110c7565b61080c6000611145565b565b6000600660009054906101000a900473ffffffffffffffffffffffffffffffffffffffff16905090565b60606001805461084790611fd7565b80601f016020809104026020016040519081016040528092919081815260200182805461087390611fd7565b80156108c05780601f10610895576101008083540402835291602001916108c0565b820191906000526020600020905b8154815290600101906020018083116108a357829003601f168201915b5050505050905090565b6108dc6108d5610c3b565b838361120b565b5050565b6108f16108eb610c3b565b83610cfc565b610930576040517f08c379a00000000000000000000000000000000000000000000000000000000081526004016109279061219e565b60405180910390fd5b61093c84848484611377565b50505050565b606061094d826113d3565b61098c576040517f08c379a00000000000000000000000000000000000000000000000000000000081526004016109839061232e565b60405180910390fd5b6008600083815260200190815260200160002080546109aa90611fd7565b80601f01602080910402602001604051908101604052809291908181526020018280546109d690611fd7565b8015610a235780601f106109f857610100808354040283529160200191610a23565b820191906000526020600020905b815481529060010190602001808311610a0657829003601f168201915b50505050509050919050565b6000610a396110c7565b610a436007611414565b6000610a4f600761142a565b9050610a5b8482611438565b610a658184611456565b8091505092915050565b6000600560008473ffffffffffffffffffffffffffffffffffffffff1673ffffffffffffffffffffffffffffffffffffffff16815260200190815260200160002060008373ffffffffffffffffffffffffffffffffffffffff1673ffffffffffffffffffffffffffffffffffffffff16815260200190815260200160002060009054906101000a900460ff16905092915050565b610b0b6110c7565b600073ffffffffffffffffffffffffffffffffffffffff168173ffffffffffffffffffffffffffffffffffffffff1603610b7a576040517f08c379a0000000000000000000000000000000000000000000000000000000008152600401610b71906123c0565b60405180910390fd5b610b8381611145565b50565b60007f01ffc9a7000000000000000000000000000000000000000000000000000000007bffffffffffffffffffffffffffffffffffffffffffffffffffffffff1916827bffffffffffffffffffffffffffffffffffffffffffffffffffffffff1916149050919050565b610bf9816113d3565b610c38576040517f08c379a0000000000000000000000000000000000000000000000000000000008152600401610c2f9061220a565b60405180910390fd5b50565b600033905090565b816004600083815260200190815260200160002060006101000a81548173ffffffffffffffffffffffffffffffffffffffff021916908373ffffffffffffffffffffffffffffffffffffffff160217905550808273ffffffffffffffffffffffffffffffffffffffff16610cb6836106bd565b73ffffffffffffffffffffffffffffffffffffffff167f8c5be1e5ebec7d5bd14f71427d1e84f3dd0314c0f7b2291e5b200ac8c7c3b92560405160405180910390a45050565b600080610d08836106bd565b90508073ffffffffffffffffffffffffffffffffffffffff168473ffffffffffffffffffffffffffffffffffffffff161480610d4a5750610d498185610a6f565b5b80610d8857508373ffffffffffffffffffffffffffffffffffffffff16610d70846104e0565b73ffffffffffffffffffffffffffffffffffffffff16145b91505092915050565b8273ffffffffffffffffffffffffffffffffffffffff16610db1826106bd565b73ffffffffffffffffffffffffffffffffffffffff1614610e07576040517f08c379a0000000000000000000000000000000000000000000000000000000008152600401610dfe90612452565b60405180910390fd5b600073ffffffffffffffffffffffffffffffffffffffff168273ffffffffffffffffffffffffffffffffffffffff1603610e76576040517f08c379a0000000000000000000000000000000000000000000000000000000008152600401610e6d906124e4565b60405180910390fd5b610e8383838360016114c3565b8273ffffffffffffffffffffffffffffffffffffffff16610ea3826106bd565b73ffffffffffffffffffffffffffffffffffffffff1614610ef9576040517f08c379a0000000000000000000000000000000000000000000000000000000008152600401610ef090612452565b60405180910390fd5b6004600082815260200190815260200160002060006101000a81549073ffffffffffffffffffffffffffffffffffffffff02191690556001600360008573ffffffffffffffffffffffffffffffffffffffff1673ffffffffffffffffffffffffffffffffffffffff168152602001908152602001600020600082825403925050819055506001600360008473ffffffffffffffffffffffffffffffffffffffff1673ffffffffffffffffffffffffffffffffffffffff16815260200190815260200160002060008282540192505081905550816002600083815260200190815260200160002060006101000a81548173ffffffffffffffffffffffffffffffffffffffff021916908373ffffffffffffffffffffffffffffffffffffffff160217905550808273ffffffffffffffffffffffffffffffffffffffff168473ffffffffffffffffffffffffffffffffffffffff167fddf252ad1be2c89b69c2b068fc378daa952ba7f163c4a11628f55a4df523b3ef60405160405180910390a461108583838360016114c9565b505050565b60006002600083815260200190815260200160002060009054906101000a900473ffffffffffffffffffffffffffffffffffffffff169050919050565b6110cf610c3b565b73ffffffffffffffffffffffffffffffffffffffff166110ed61080e565b73ffffffffffffffffffffffffffffffffffffffff1614611143576040517f08c379a000000000000000000000000000000000000000000000000000000000815260040161113a90612550565b60405180910390fd5b565b6000600660009054906101000a900473ffffffffffffffffffffffffffffffffffffffff16905081600660006101000a81548173ffffffffffffffffffffffffffffffffffffffff021916908373ffffffffffffffffffffffffffffffffffffffff1602179055508173ffffffffffffffffffffffffffffffffffffffff168173ffffffffffffffffffffffffffffffffffffffff167f8be0079c531659141344cd1fd0a4f28419497f9722a3daafe3b4186f6b6457e060405160405180910390a35050565b8173ffffffffffffffffffffffffffffffffffffffff168373ffffffffffffffffffffffffffffffffffffffff1603611279576040517f08c379a0000000000000000000000000000000000000000000000000000000008152600401611270906125bc565b60405180910390fd5b80600560008573ffffffffffffffffffffffffffffffffffffffff1673ffffffffffffffffffffffffffffffffffffffff16815260200190815260200160002060008473ffffffffffffffffffffffffffffffffffffffff1673ffffffffffffffffffffffffffffffffffffffff16815260200190815260200160002060006101000a81548160ff0219169083151502179055508173ffffffffffffffffffffffffffffffffffffffff168373ffffffffffffffffffffffffffffffffffffffff167f17307eab39ab6107e8899845ad3d59bd9653f200f220920489ca2b5937696c318360405161136a91906119a5565b60405180910390a3505050565b611382848484610d91565b61138e848484846114cf565b6113cd576040517f08c379a00000000000000000000000000000000000000000000000000000000081526004016113c49061264e565b60405180910390fd5b50505050565b60008073ffffffffffffffffffffffffffffffffffffffff166113f58361108a565b73ffffffffffffffffffffffffffffffffffffffff1614159050919050565b6001816000016000828254019250508190555050565b600081600001549050919050565b611452828260405180602001604052806000815250611656565b5050565b61145f826113d3565b61149e576040517f08c379a0000000000000000000000000000000000000000000000000000000008152600401611495906126e0565b60405180910390fd5b806008600084815260200190815260200160002090816114be91906128ac565b505050565b50505050565b50505050565b60006114f08473ffffffffffffffffffffffffffffffffffffffff166116b1565b15611649578373ffffffffffffffffffffffffffffffffffffffff1663150b7a02611519610c3b565b8786866040518563ffffffff1660e01b815260040161153b94939291906129d3565b6020604051808303816000875af192505050801561157757506040513d601f19601f820116820180604052508101906115749190612a34565b60015b6115f9573d80600081146115a7576040519150601f19603f3d011682016040523d82523d6000602084013e6115ac565b606091505b5060008151036115f1576040517f08c379a00000000000000000000000000000000000000000000000000000000081526004016115e89061264e565b60405180910390fd5b805181602001fd5b63150b7a0260e01b7bffffffffffffffffffffffffffffffffffffffffffffffffffffffff1916817bffffffffffffffffffffffffffffffffffffffffffffffffffffffff19161491505061164e565b600190505b949350505050565b61166083836116d4565b61166d60008484846114cf565b6116ac576040517f08c379a00000000000000000000000000000000000000000000000000000000081526004016116a39061264e565b60405180910390fd5b505050565b6000808273ffffffffffffffffffffffffffffffffffffffff163b119050919050565b600073ffffffffffffffffffffffffffffffffffffffff168273ffffffffffffffffffffffffffffffffffffffff1603611743576040517f08c379a000000000000000000000000000000000000000000000000000000000815260040161173a90612aad565b60405180910390fd5b61174c816113d3565b1561178c576040517f08c379a000000000000000000000000000000000000000000000000000000000815260040161178390612b19565b60405180910390fd5b61179a6000838360016114c3565b6117a3816113d3565b156117e3576040517f08c379a00000000000000000000000000000000000000000000000000000000081526004016117da90612b19565b60405180910390fd5b6001600360008473ffffffffffffffffffffffffffffffffffffffff1673ffffffffffffffffffffffffffffffffffffffff16815260200190815260200160002060008282540192505081905550816002600083815260200190815260200160002060006101000a81548173ffffffffffffffffffffffffffffffffffffffff021916908373ffffffffffffffffffffffffffffffffffffffff160217905550808273ffffffffffffffffffffffffffffffffffffffff16600073ffffffffffffffffffffffffffffffffffffffff167fddf252ad1be2c89b69c2b068fc378daa952ba7f163c4a11628f55a4df523b3ef60405160405180910390a46118ed6000838360016114c9565b5050565b6000604051905090565b600080fd5b600080fd5b60007fffffffff0000000000000000000000000000000000000000000000000000000082169050919050565b61193a81611905565b811461194557600080fd5b50565b60008135905061195781611931565b92915050565b600060208284031215611973576119726118fb565b5b600061198184828501611948565b91505092915050565b60008115159050919050565b61199f8161198a565b82525050565b60006020820190506119ba6000830184611996565b92915050565b600081519050919050565b600082825260208201905092915050565b60005b838110156119fa5780820151818401526020810190506119df565b60008484015250505050565b6000601f19601f8301169050919050565b6000611a22826119c0565b611a2c81856119cb565b9350611a3c8185602086016119dc565b611a4581611a06565b840191505092915050565b60006020820190508181036000830152611a6a8184611a17565b905092915050565b6000819050919050565b611a8581611a72565b8114611a9057600080fd5b50565b600081359050611aa281611a7c565b92915050565b600060208284031215611abe57611abd6118fb565b5b6000611acc84828501611a93565b91505092915050565b600073ffffffffffffffffffffffffffffffffffffffff82169050919050565b6000611b0082611ad5565b9050919050565b611b1081611af5565b82525050565b6000602082019050611b2b6000830184611b07565b92915050565b611b3a81611af5565b8114611b4557600080fd5b50565b600081359050611b5781611b31565b92915050565b60008060408385031215611b7457611b736118fb565b5b6000611b8285828601611b48565b9250506020611b9385828601611a93565b9150509250929050565b600080600060608486031215611bb657611bb56118fb565b5b6000611bc486828701611b48565b9350506020611bd586828701611b48565b9250506040611be686828701611a93565b9150509250925092565b600060208284031215611c0657611c056118fb565b5b6000611c1484828501611b48565b91505092915050565b611c2681611a72565b82525050565b6000602082019050611c416000830184611c1d565b92915050565b611c508161198a565b8114611c5b57600080fd5b50565b600081359050611c6d81611c47565b92915050565b60008060408385031215611c8a57611c896118fb565b5b6000611c9885828601611b48565b9250506020611ca985828601611c5e565b9150509250929050565b600080fd5b600080fd5b7f4e487b7100000000000000000000000000000000000000000000000000000000600052604160045260246000fd5b611cf582611a06565b810181811067ffffffffffffffff82111715611d1457611d13611cbd565b5b80604052505050565b6000611d276118f1565b9050611d338282611cec565b919050565b600067ffffffffffffffff821115611d5357611d52611cbd565b5b611d5c82611a06565b9050602081019050919050565b82818337600083830152505050565b6000611d8b611d8684611d38565b611d1d565b905082815260208101848484011115611da757611da6611cb8565b5b611db2848285611d69565b509392505050565b600082601f830112611dcf57611dce611cb3565b5b8135611ddf848260208601611d78565b91505092915050565b60008060008060808587031215611e0257611e016118fb565b5b6000611e1087828801611b48565b9450506020611e2187828801611b48565b9350506040611e3287828801611a93565b925050606085013567ffffffffffffffff811115611e5357611e52611900565b5b611e5f87828801611dba565b91505092959194509250565b600067ffffffffffffffff821115611e8657611e85611cbd565b5b611e8f82611a06565b9050602081019050919050565b6000611eaf611eaa84611e6b565b611d1d565b905082815260208101848484011115611ecb57611eca611cb8565b5b611ed6848285611d69565b509392505050565b600082601f830112611ef357611ef2611cb3565b5b8135611f03848260208601611e9c565b91505092915050565b60008060408385031215611f2357611f226118fb565b5b6000611f3185828601611b48565b925050602083013567ffffffffffffffff811115611f5257611f51611900565b5b611f5e85828601611ede565b9150509250929050565b60008060408385031215611f7f57611f7e6118fb565b5b6000611f8d85828601611b48565b9250506020611f9e85828601611b48565b9150509250929050565b7f4e487b7100000000000000000000000000000000000000000000000000000000600052602260045260246000fd5b60006002820490506001821680611fef57607f821691505b60208210810361200257612001611fa8565b5b50919050565b7f4552433732313a20617070726f76616c20746f2063757272656e74206f776e6560008201527f7200000000000000000000000000000000000000000000000000000000000000602082015250565b60006120646021836119cb565b915061206f82612008565b604082019050919050565b6000602082019050818103600083015261209381612057565b9050919050565b7f4552433732313a20617070726f76652063616c6c6572206973206e6f7420746f60008201527f6b656e206f776e6572206f7220617070726f76656420666f7220616c6c000000602082015250565b60006120f6603d836119cb565b91506121018261209a565b604082019050919050565b60006020820190508181036000830152612125816120e9565b9050919050565b7f4552433732313a2063616c6c6572206973206e6f7420746f6b656e206f776e6560008201527f72206f7220617070726f76656400000000000000000000000000000000000000602082015250565b6000612188602d836119cb565b91506121938261212c565b604082019050919050565b600060208201905081810360008301526121b78161217b565b9050919050565b7f4552433732313a20696e76616c696420746f6b656e2049440000000000000000600082015250565b60006121f46018836119cb565b91506121ff826121be565b602082019050919050565b60006020820190508181036000830152612223816121e7565b9050919050565b7f4552433732313a2061646472657373207a65726f206973206e6f74206120766160008201527f6c6964206f776e65720000000000000000000000000000000000000000000000602082015250565b60006122866029836119cb565b91506122918261222a565b604082019050919050565b600060208201905081810360008301526122b581612279565b9050919050565b7f4552433732314d657461646174613a2055524920717565727920666f72206e6f60008201527f6e6578697374656e7420746f6b656e0000000000000000000000000000000000602082015250565b6000612318602f836119cb565b9150612323826122bc565b604082019050919050565b600060208201905081810360008301526123478161230b565b9050919050565b7f4f776e61626c653a206e6577206f776e657220697320746865207a65726f206160008201527f6464726573730000000000000000000000000000000000000000000000000000602082015250565b60006123aa6026836119cb565b91506123b58261234e565b604082019050919050565b600060208201905081810360008301526123d98161239d565b9050919050565b7f4552433732313a207472616e736665722066726f6d20696e636f72726563742060008201527f6f776e6572000000000000000000000000000000000000000000000000000000602082015250565b600061243c6025836119cb565b9150612447826123e0565b604082019050919050565b6000602082019050818103600083015261246b8161242f565b9050919050565b7f4552433732313a207472616e7366657220746f20746865207a65726f2061646460008201527f7265737300000000000000000000000000000000000000000000000000000000602082015250565b60006124ce6024836119cb565b91506124d982612472565b604082019050919050565b600060208201905081810360008301526124fd816124c1565b9050919050565b7f4f776e61626c653a2063616c6c6572206973206e6f7420746865206f776e6572600082015250565b600061253a6020836119cb565b915061254582612504565b602082019050919050565b600060208201905081810360008301526125698161252d565b9050919050565b7f4552433732313a20617070726f766520746f2063616c6c657200000000000000600082015250565b60006125a66019836119cb565b91506125b182612570565b602082019050919050565b600060208201905081810360008301526125d581612599565b9050919050565b7f4552433732313a207472616e7366657220746f206e6f6e20455243373231526560008201527f63656976657220696d706c656d656e7465720000000000000000000000000000602082015250565b60006126386032836119cb565b9150612643826125dc565b604082019050919050565b600060208201905081810360008301526126678161262b565b9050919050565b7f4552433732314d657461646174613a2055524920736574206f66206e6f6e657860008201527f697374656e7420746f6b656e0000000000000000000000000000000000000000602082015250565b60006126ca602c836119cb565b91506126d58261266e565b604082019050919050565b600060208201905081810360008301526126f9816126bd565b9050919050565b60008190508160005260206000209050919050565b60006020601f8301049050919050565b600082821b905092915050565b6000600883026127627fffffffffffffffffffffffffffffffffffffffffffffffffffffffffffffffff82612725565b61276c8683612725565b95508019841693508086168417925050509392505050565b6000819050919050565b60006127a96127a461279f84611a72565b612784565b611a72565b9050919050565b6000819050919050565b6127c38361278e565b6127d76127cf826127b0565b848454612732565b825550505050565b600090565b6127ec6127df565b6127f78184846127ba565b505050565b5b8181101561281b576128106000826127e4565b6001810190506127fd565b5050565b601f8211156128605761283181612700565b61283a84612715565b81016020851015612849578190505b61285d61285585612715565b8301826127fc565b50505b505050565b600082821c905092915050565b600061288360001984600802612865565b1980831691505092915050565b600061289c8383612872565b9150826002028217905092915050565b6128b5826119c0565b67ffffffffffffffff8111156128ce576128cd611cbd565b5b6128d88254611fd7565b6128e382828561281f565b600060209050601f8311600181146129165760008415612904578287015190505b61290e8582612890565b865550612976565b601f19841661292486612700565b60005b8281101561294c57848901518255600182019150602085019450602081019050612927565b868310156129695784890151612965601f891682612872565b8355505b6001600288020188555050505b505050505050565b600081519050919050565b600082825260208201905092915050565b60006129a58261297e565b6129af8185612989565b93506129bf8185602086016119dc565b6129c881611a06565b840191505092915050565b60006080820190506129e86000830187611b07565b6129f56020830186611b07565b612a026040830185611c1d565b8181036060830152612a14818461299a565b905095945050505050565b600081519050612a2e81611931565b92915050565b600060208284031215612a4a57612a496118fb565b5b6000612a5884828501612a1f565b91505092915050565b7f4552433732313a206d696e7420746f20746865207a65726f2061646472657373600082015250565b6000612a976020836119cb565b9150612aa282612a61565b602082019050919050565b60006020820190508181036000830152612ac681612a8a565b9050919050565b7f4552433732313a20746f6b656e20616c7265616479206d696e74656400000000600082015250565b6000612b03601c836119cb565b9150612b0e82612acd565b602082019050919050565b60006020820190508181036000830152612b3281612af6565b905091905056fea2646970667358221220f81294731b0162359d7dbab712374d84ee0d0ca663c3a05ef68fe3e80d3e198264736f6c634300081b0033",
  "linkReferences": {},
  "deployedLinkReferences": {}
}